{
  "abi": [
    {
      "inputs": [
        {
          "internalType": "address",
          "name": "_implementation",
          "type": "address"
        }
      ],
      "stateMutability": "nonpayable",
      "type": "constructor"
    },
    {
      "anonymous": false,
      "inputs": [
        {
          "indexed": true,
          "internalType": "address",
          "name": "token0",
          "type": "address"
        },
        {
          "indexed": true,
          "internalType": "address",
          "name": "token1",
          "type": "address"
        },
        {
          "indexed": true,
          "internalType": "bool",
          "name": "stable",
          "type": "bool"
        },
        {
          "indexed": false,
          "internalType": "address",
          "name": "pool",
          "type": "address"
        },
        {
          "indexed": false,
          "internalType": "uint256",
          "name": "",
          "type": "uint256"
        }
      ],
      "name": "PoolCreated",
      "type": "event"
    },
    {
      "anonymous": false,
      "inputs": [
        {
          "indexed": true,
          "internalType": "address",
          "name": "pool",
          "type": "address"
        },
        {
          "indexed": false,
          "internalType": "uint256",
          "name": "fee",
          "type": "uint256"
        }
      ],
      "name": "SetCustomFee",
      "type": "event"
    },
    {
      "anonymous": false,
      "inputs": [
        {
          "indexed": false,
          "internalType": "address",
          "name": "feeManager",
          "type": "address"
        }
      ],
      "name": "SetFeeManager",
      "type": "event"
    },
    {
      "anonymous": false,
      "inputs": [
        {
          "indexed": false,
          "internalType": "bool",
          "name": "state",
          "type": "bool"
        }
      ],
      "name": "SetPauseState",
      "type": "event"
    },
    {
      "anonymous": false,
      "inputs": [
        {
          "indexed": false,
          "internalType": "address",
          "name": "pauser",
          "type": "address"
        }
      ],
      "name": "SetPauser",
      "type": "event"
    },
    {
      "anonymous": false,
      "inputs": [
        {
          "indexed": false,
          "internalType": "address",
          "name": "voter",
          "type": "address"
        }
      ],
      "name": "SetVoter",
      "type": "event"
    },
    {
      "inputs": [],
      "name": "MAX_FEE",
      "outputs": [
        {
          "internalType": "uint256",
          "name": "",
          "type": "uint256"
        }
      ],
      "stateMutability": "view",
      "type": "function"
    },
    {
      "inputs": [],
      "name": "ZERO_FEE_INDICATOR",
      "outputs": [
        {
          "internalType": "uint256",
          "name": "",
          "type": "uint256"
        }
      ],
      "stateMutability": "view",
      "type": "function"
    },
    {
      "inputs": [
        {
          "internalType": "uint256",
          "name": "",
          "type": "uint256"
        }
      ],
      "name": "allPools",
      "outputs": [
        {
          "internalType": "address",
          "name": "",
          "type": "address"
        }
      ],
      "stateMutability": "view",
      "type": "function"
    },
    {
      "inputs": [],
      "name": "allPoolsLength",
      "outputs": [
        {
          "internalType": "uint256",
          "name": "",
          "type": "uint256"
        }
      ],
      "stateMutability": "view",
      "type": "function"
    },
    {
      "inputs": [
        {
          "internalType": "address",
          "name": "tokenA",
          "type": "address"
        },
        {
          "internalType": "address",
          "name": "tokenB",
          "type": "address"
        },
        {
          "internalType": "bool",
          "name": "stable",
          "type": "bool"
        }
      ],
      "name": "createPair",
      "outputs": [
        {
          "internalType": "address",
          "name": "pool",
          "type": "address"
        }
      ],
      "stateMutability": "nonpayable",
      "type": "function"
    },
    {
      "inputs": [
        {
          "internalType": "address",
          "name": "tokenA",
          "type": "address"
        },
        {
          "internalType": "address",
          "name": "tokenB",
          "type": "address"
        },
        {
          "internalType": "bool",
          "name": "stable",
          "type": "bool"
        }
      ],
      "name": "createPool",
      "outputs": [
        {
          "internalType": "address",
          "name": "pool",
          "type": "address"
        }
      ],
      "stateMutability": "nonpayable",
      "type": "function"
    },
    {
      "inputs": [
        {
          "internalType": "address",
          "name": "tokenA",
          "type": "address"
        },
        {
          "internalType": "address",
          "name": "tokenB",
          "type": "address"
        },
        {
          "internalType": "uint24",
          "name": "fee",
          "type": "uint24"
        }
      ],
      "name": "createPool",
      "outputs": [
        {
          "internalType": "address",
          "name": "pool",
          "type": "address"
        }
      ],
      "stateMutability": "nonpayable",
      "type": "function"
    },
    {
      "inputs": [
        {
          "internalType": "address",
          "name": "",
          "type": "address"
        }
      ],
      "name": "customFee",
      "outputs": [
        {
          "internalType": "uint256",
          "name": "",
          "type": "uint256"
        }
      ],
      "stateMutability": "view",
      "type": "function"
    },
    {
      "inputs": [],
      "name": "feeManager",
      "outputs": [
        {
          "internalType": "address",
          "name": "",
          "type": "address"
        }
      ],
      "stateMutability": "view",
      "type": "function"
    },
    {
      "inputs": [
        {
          "internalType": "address",
          "name": "pool",
          "type": "address"
        },
        {
          "internalType": "bool",
          "name": "_stable",
          "type": "bool"
        }
      ],
      "name": "getFee",
      "outputs": [
        {
          "internalType": "uint256",
          "name": "",
          "type": "uint256"
        }
      ],
      "stateMutability": "view",
      "type": "function"
    },
    {
      "inputs": [
        {
          "internalType": "address",
          "name": "tokenA",
          "type": "address"
        },
        {
          "internalType": "address",
          "name": "tokenB",
          "type": "address"
        },
        {
          "internalType": "bool",
          "name": "stable",
          "type": "bool"
        }
      ],
      "name": "getPair",
      "outputs": [
        {
          "internalType": "address",
          "name": "",
          "type": "address"
        }
      ],
      "stateMutability": "view",
      "type": "function"
    },
    {
      "inputs": [
        {
          "internalType": "address",
          "name": "tokenA",
          "type": "address"
        },
        {
          "internalType": "address",
          "name": "tokenB",
          "type": "address"
        },
        {
          "internalType": "uint24",
          "name": "fee",
          "type": "uint24"
        }
      ],
      "name": "getPool",
      "outputs": [
        {
          "internalType": "address",
          "name": "",
          "type": "address"
        }
      ],
      "stateMutability": "view",
      "type": "function"
    },
    {
      "inputs": [
        {
          "internalType": "address",
          "name": "tokenA",
          "type": "address"
        },
        {
          "internalType": "address",
          "name": "tokenB",
          "type": "address"
        },
        {
          "internalType": "bool",
          "name": "stable",
          "type": "bool"
        }
      ],
      "name": "getPool",
      "outputs": [
        {
          "internalType": "address",
          "name": "",
          "type": "address"
        }
      ],
      "stateMutability": "view",
      "type": "function"
    },
    {
      "inputs": [],
      "name": "implementation",
      "outputs": [
        {
          "internalType": "address",
          "name": "",
          "type": "address"
        }
      ],
      "stateMutability": "view",
      "type": "function"
    },
    {
      "inputs": [
        {
          "internalType": "address",
          "name": "pool",
          "type": "address"
        }
      ],
      "name": "isPair",
      "outputs": [
        {
          "internalType": "bool",
          "name": "",
          "type": "bool"
        }
      ],
      "stateMutability": "view",
      "type": "function"
    },
    {
      "inputs": [],
      "name": "isPaused",
      "outputs": [
        {
          "internalType": "bool",
          "name": "",
          "type": "bool"
        }
      ],
      "stateMutability": "view",
      "type": "function"
    },
    {
      "inputs": [
        {
          "internalType": "address",
          "name": "pool",
          "type": "address"
        }
      ],
      "name": "isPool",
      "outputs": [
        {
          "internalType": "bool",
          "name": "",
          "type": "bool"
        }
      ],
      "stateMutability": "view",
      "type": "function"
    },
    {
      "inputs": [],
      "name": "pauser",
      "outputs": [
        {
          "internalType": "address",
          "name": "",
          "type": "address"
        }
      ],
      "stateMutability": "view",
      "type": "function"
    },
    {
      "inputs": [
        {
          "internalType": "address",
          "name": "pool",
          "type": "address"
        },
        {
          "internalType": "uint256",
          "name": "fee",
          "type": "uint256"
        }
      ],
      "name": "setCustomFee",
      "outputs": [],
      "stateMutability": "nonpayable",
      "type": "function"
    },
    {
      "inputs": [
        {
          "internalType": "bool",
          "name": "_stable",
          "type": "bool"
        },
        {
          "internalType": "uint256",
          "name": "_fee",
          "type": "uint256"
        }
      ],
      "name": "setFee",
      "outputs": [],
      "stateMutability": "nonpayable",
      "type": "function"
    },
    {
      "inputs": [
        {
          "internalType": "address",
          "name": "_feeManager",
          "type": "address"
        }
      ],
      "name": "setFeeManager",
      "outputs": [],
      "stateMutability": "nonpayable",
      "type": "function"
    },
    {
      "inputs": [
        {
          "internalType": "bool",
          "name": "_state",
          "type": "bool"
        }
      ],
      "name": "setPauseState",
      "outputs": [],
      "stateMutability": "nonpayable",
      "type": "function"
    },
    {
      "inputs": [
        {
          "internalType": "address",
          "name": "_pauser",
          "type": "address"
        }
      ],
      "name": "setPauser",
      "outputs": [],
      "stateMutability": "nonpayable",
      "type": "function"
    },
    {
      "inputs": [
        {
          "internalType": "address",
          "name": "_sinkConverter",
          "type": "address"
        },
        {
          "internalType": "address",
          "name": "_velo",
          "type": "address"
        },
        {
          "internalType": "address",
          "name": "_veloV2",
          "type": "address"
        }
      ],
      "name": "setSinkConverter",
      "outputs": [],
      "stateMutability": "nonpayable",
      "type": "function"
    },
    {
      "inputs": [
        {
          "internalType": "address",
          "name": "_voter",
          "type": "address"
        }
      ],
      "name": "setVoter",
      "outputs": [],
      "stateMutability": "nonpayable",
      "type": "function"
    },
    {
      "inputs": [],
      "name": "sinkConverter",
      "outputs": [
        {
          "internalType": "address",
          "name": "",
          "type": "address"
        }
      ],
      "stateMutability": "view",
      "type": "function"
    },
    {
      "inputs": [],
      "name": "stableFee",
      "outputs": [
        {
          "internalType": "uint256",
          "name": "",
          "type": "uint256"
        }
      ],
      "stateMutability": "view",
      "type": "function"
    },
    {
      "inputs": [],
      "name": "velo",
      "outputs": [
        {
          "internalType": "address",
          "name": "",
          "type": "address"
        }
      ],
      "stateMutability": "view",
      "type": "function"
    },
    {
      "inputs": [],
      "name": "veloV2",
      "outputs": [
        {
          "internalType": "address",
          "name": "",
          "type": "address"
        }
      ],
      "stateMutability": "view",
      "type": "function"
    },
    {
      "inputs": [],
      "name": "volatileFee",
      "outputs": [
        {
          "internalType": "uint256",
          "name": "",
          "type": "uint256"
        }
      ],
      "stateMutability": "view",
      "type": "function"
    },
    {
      "inputs": [],
      "name": "voter",
      "outputs": [
        {
          "internalType": "address",
          "name": "",
          "type": "address"
        }
      ],
      "stateMutability": "view",
      "type": "function"
    }
  ],
  "bytecode": {
    "object": "0x60a060405234801561001057600080fd5b506040516111ee3803806111ee83398101604081905261002f91610096565b6001600160a01b031660805260048054336001600160a01b0319918216811790925560008054600380548416851790556007805490931684179092556001600160a81b031990911661010090920260ff19169190911790556005600155601e6002556100c6565b6000602082840312156100a857600080fd5b81516001600160a01b03811681146100bf57600080fd5b9392505050565b6080516111066100e86000396000818161032b01526106f401526111066000f3fe608060405234801561001057600080fd5b50600436106101e55760003560e01c806379bc57d51161010f578063c6751c09116100a2578063d49466a811610071578063d49466a814610456578063e1f76b4414610469578063e5e31b13146102ea578063efde4e641461047c57600080fd5b8063c6751c091461040a578063cc56b2c51461041d578063cdb88ad114610430578063d0fb02031461044357600080fd5b80639fd0506d116100de5780639fd0506d146103ca578063a1671295146103e2578063b187bd26146103f5578063bc063e1a1461040257600080fd5b806379bc57d51461034d57806382dfdce4146103915780638c7c53ce146103a45780638e39ee16146103b757600080fd5b806346c96aac116101875780635084ed03116101565780635084ed03146102e15780635b16ebb7146102ea5780635c60da1b146103265780636801cc301461034d57600080fd5b806346c96aac14610288578063472d35b91461029b5780634bc2a657146102ae5780634d419abc146102c157600080fd5b806337068e7b116101c357806337068e7b1461024257806338c55d461461025557806340bbd7751461026c57806341d1de971461027557600080fd5b80631698ee82146101ea5780632d88af4a1461021a57806336bf95a01461022f575b600080fd5b6101fd6101f8366004610f25565b610484565b6040516001600160a01b0390911681526020015b60405180910390f35b61022d610228366004610f74565b610516565b005b6101fd61023d366004610fa6565b6105ca565b61022d610250366004610fe9565b610889565b61025e6101a481565b604051908152602001610211565b61025e60015481565b6101fd610283366004611023565b610aa3565b6004546101fd906001600160a01b031681565b61022d6102a9366004610f74565b610acd565b61022d6102bc366004610f74565b610b6d565b61025e6102cf366004610f74565b600b6020526000908152604090205481565b61025e60025481565b6103166102f8366004610f74565b6001600160a01b03166000908152600a602052604090205460ff1690565b6040519015158152602001610211565b6101fd7f000000000000000000000000000000000000000000000000000000000000000081565b6101fd61035b366004610fa6565b6001600160a01b039283166000908152600860209081526040808320948616835293815283822092151582529190915220541690565b6101fd61039f366004610fa6565b610be6565b6005546101fd906001600160a01b031681565b6007546101fd906001600160a01b031681565b6000546101fd9061010090046001600160a01b031681565b6101fd6103f0366004610f25565b610bf3565b6000546103169060ff1681565b61025e606481565b6006546101fd906001600160a01b031681565b61025e61042b36600461103c565b610c39565b61022d61043e36600461106f565b610c8b565b6003546101fd906001600160a01b031681565b61022d61046436600461108a565b610cfc565b61022d6104773660046110b4565b610de8565b60095461025e565b600060018262ffffff161161050b578162ffffff166001146104d5576001600160a01b038085166000908152600860209081526040808320878516845282528083208380529091529020541661050e565b6001600160a01b03808516600090815260086020908152604080832087851684528252808320600184529091529020541661050e565b60005b949350505050565b60005461010090046001600160a01b031633146105465760405163492f678160e01b815260040160405180910390fd5b6001600160a01b03811661056d5760405163d92e233d60e01b815260040160405180910390fd5b60008054610100600160a81b0319166101006001600160a01b038416908102919091179091556040519081527fe02efb9e8f0fc21546730ab32d594f62d586e1bbb15bb5045edd0b1878a77b35906020015b60405180910390a150565b6000826001600160a01b0316846001600160a01b0316036105fe5760405163367558c360e01b815260040160405180910390fd5b600080846001600160a01b0316866001600160a01b031610610621578486610624565b85855b90925090506001600160a01b0382166106505760405163d92e233d60e01b815260040160405180910390fd5b6001600160a01b03828116600090815260086020908152604080832085851684528252808320881515845290915290205416156106a057604051630188c99160e11b815260040160405180910390fd5b6040516bffffffffffffffffffffffff19606084811b8216602084015283901b16603482015284151560f81b60488201526000906049016040516020818303038152906040528051906020012090506107197f000000000000000000000000000000000000000000000000000000000000000082610e68565b604051631c9776b560e31b81526001600160a01b038581166004830152848116602483015287151560448301529195509085169063e4bbb5a890606401600060405180830381600087803b15801561077057600080fd5b505af1158015610784573d6000803e3d6000fd5b505050506001600160a01b0383811660008181526008602081815260408084208887168086529083528185208c15158087529084528286208054988d166001600160a01b0319998a16811790915582875294845282862087875284528286208187528452828620805489168617905560098054600181810183557f6e1540171b6c0c960b71a7020d9f60077f6af931a8bbf590da0223dacf75c7af9091018054909a168717909955858752600a855295839020805460ff191690981790975593548151938452918301919091529192917f2128d88d14c80cb081c1252a5acff7a264671bf199ce226b53788fb26065005e910160405180910390a45050509392505050565b6007546001600160a01b031633146108b4576040516315517aa960e31b815260040160405180910390fd5b600780546001600160a01b038086166001600160a01b03199283161790925560058054858416908316811790915560068054938516939092168317909155600091829110610903578284610906565b83835b600780546001600160a01b038481166000818152600860208181526040808420898716808652908352818520600180875281855283872080546001600160a01b03199081169b8b169b909b1790558a54838852958552838720888852855283872081885280865284882080548c16978b16979097179096558a5487805291855283872080548b16928a1692909217909155895494845282862080548a169589169590951790945588546009805480870182557f6e1540171b6c0c960b71a7020d9f60077f6af931a8bbf590da0223dacf75c7af018054909a1691891691909117909855885487168552600a835293819020805460ff1916841790559654955487519690951686528501939093529597509395509392917f2128d88d14c80cb081c1252a5acff7a264671bf199ce226b53788fb26065005e910160405180910390a4600754600954604080516001600160a01b039384168152602081019290925260009284811692908616917f2128d88d14c80cb081c1252a5acff7a264671bf199ce226b53788fb26065005e910160405180910390a45050505050565b60098181548110610ab357600080fd5b6000918252602090912001546001600160a01b0316905081565b6003546001600160a01b03163314610af85760405163f5d267eb60e01b815260040160405180910390fd5b6001600160a01b038116610b1f5760405163d92e233d60e01b815260040160405180910390fd5b600380546001600160a01b0319166001600160a01b0383169081179091556040519081527f5d0517e3a4eabea892d9750138cd21d4a6cf3b935b43d0598df7055f463819b2906020016105bf565b6004546001600160a01b03163314610b985760405163c18384c160e01b815260040160405180910390fd5b600480546001600160a01b0319166001600160a01b0383169081179091556040519081527fc6ff127433b785c51da9ae4088ee184c909b1a55b9afd82ae6c64224d3bc15d2906020016105bf565b600061050e8484846105ca565b600060018262ffffff161115610c1c576040516352dadcf960e01b815260040160405180910390fd5b600162ffffff831614610c308585836105ca565b95945050505050565b6001600160a01b0382166000908152600b60205260408120546101a48114610c7e5780600003610c785782610c7057600254610c81565b600154610c81565b80610c81565b60005b9150505b92915050565b60005461010090046001600160a01b03163314610cbb5760405163492f678160e01b815260040160405180910390fd5b6000805460ff19168215159081179091556040519081527f0d76538efc408318a051137c2720a9e82902acdbd46b802d488b74ca3a09a116906020016105bf565b6003546001600160a01b03163314610d275760405163f5d267eb60e01b815260040160405180910390fd5b606481118015610d3957506101a48114155b15610d575760405163cd4e616760e01b815260040160405180910390fd5b6001600160a01b0382166000908152600a602052604090205460ff16610d8f5760405162820f3560e61b815260040160405180910390fd5b6001600160a01b0382166000818152600b602052604090819020839055517fae468ce586f9a87660fdffc1448cee942042c16ae2f02046b134b5224f31936b90610ddc9084815260200190565b60405180910390a25050565b6003546001600160a01b03163314610e135760405163f5d267eb60e01b815260040160405180910390fd5b6064811115610e355760405163cd4e616760e01b815260040160405180910390fd5b80600003610e565760405163af13986d60e01b815260040160405180910390fd5b8115610e625760015550565b60025550565b6000763d602d80600a3d3981f3363d3d373d3d3d363d730000008360601b60e81c176000526e5af43d82803e903d91602b57fd5bf38360781b1760205281603760096000f590506001600160a01b038116610c855760405162461bcd60e51b815260206004820152601760248201527f455243313136373a2063726561746532206661696c6564000000000000000000604482015260640160405180910390fd5b80356001600160a01b0381168114610f2057600080fd5b919050565b600080600060608486031215610f3a57600080fd5b610f4384610f09565b9250610f5160208501610f09565b9150604084013562ffffff81168114610f6957600080fd5b809150509250925092565b600060208284031215610f8657600080fd5b610f8f82610f09565b9392505050565b80358015158114610f2057600080fd5b600080600060608486031215610fbb57600080fd5b610fc484610f09565b9250610fd260208501610f09565b9150610fe060408501610f96565b90509250925092565b600080600060608486031215610ffe57600080fd5b61100784610f09565b925061101560208501610f09565b9150610fe060408501610f09565b60006020828403121561103557600080fd5b5035919050565b6000806040838503121561104f57600080fd5b61105883610f09565b915061106660208401610f96565b90509250929050565b60006020828403121561108157600080fd5b610f8f82610f96565b6000806040838503121561109d57600080fd5b6110a683610f09565b946020939093013593505050565b600080604083850312156110c757600080fd5b6110a683610f9656fea2646970667358221220fce551aa23ee22f2cf8f8ffa9863b1e280d4c851787e8dfcea1544f782962d7d64736f6c63430008130033",
    "linkReferences": {}
  },
  "methodIdentifiers": {
    "MAX_FEE()": "bc063e1a",
    "ZERO_FEE_INDICATOR()": "38c55d46",
    "allPools(uint256)": "41d1de97",
    "allPoolsLength()": "efde4e64",
    "createPair(address,address,bool)": "82dfdce4",
    "createPool(address,address,bool)": "36bf95a0",
    "createPool(address,address,uint24)": "a1671295",
    "customFee(address)": "4d419abc",
    "feeManager()": "d0fb0203",
    "getFee(address,bool)": "cc56b2c5",
    "getPair(address,address,bool)": "6801cc30",
    "getPool(address,address,bool)": "79bc57d5",
    "getPool(address,address,uint24)": "1698ee82",
    "implementation()": "5c60da1b",
    "isPair(address)": "e5e31b13",
    "isPaused()": "b187bd26",
    "isPool(address)": "5b16ebb7",
    "pauser()": "9fd0506d",
    "setCustomFee(address,uint256)": "d49466a8",
    "setFee(bool,uint256)": "e1f76b44",
    "setFeeManager(address)": "472d35b9",
    "setPauseState(bool)": "cdb88ad1",
    "setPauser(address)": "2d88af4a",
    "setSinkConverter(address,address,address)": "37068e7b",
    "setVoter(address)": "4bc2a657",
    "sinkConverter()": "8e39ee16",
    "stableFee()": "40bbd775",
    "velo()": "8c7c53ce",
    "veloV2()": "c6751c09",
    "volatileFee()": "5084ed03",
    "voter()": "46c96aac"
  },
  "id": 18
}