{
    "abi": [
        {
            "inputs": [],
            "stateMutability": "nonpayable",
            "type": "constructor"
        },
        {
            "anonymous": false,
            "inputs": [
                {
                    "indexed": true,
                    "internalType": "address",
                    "name": "owner",
                    "type": "address"
                },
                {
                    "indexed": true,
                    "internalType": "address",
                    "name": "spender",
                    "type": "address"
                },
                {
                    "indexed": false,
                    "internalType": "uint256",
                    "name": "value",
                    "type": "uint256"
                }
            ],
            "name": "Approval",
            "type": "event"
        },
        {
            "anonymous": false,
            "inputs": [
                {
                    "indexed": true,
                    "internalType": "address",
                    "name": "sender",
                    "type": "address"
                },
                {
                    "indexed": true,
                    "internalType": "address",
                    "name": "to",
                    "type": "address"
                },
                {
                    "indexed": false,
                    "internalType": "uint256",
                    "name": "amount0",
                    "type": "uint256"
                },
                {
                    "indexed": false,
                    "internalType": "uint256",
                    "name": "amount1",
                    "type": "uint256"
                }
            ],
            "name": "Burn",
            "type": "event"
        },
        {
            "anonymous": false,
            "inputs": [
                {
                    "indexed": true,
                    "internalType": "address",
                    "name": "sender",
                    "type": "address"
                },
                {
                    "indexed": true,
                    "internalType": "address",
                    "name": "recipient",
                    "type": "address"
                },
                {
                    "indexed": false,
                    "internalType": "uint256",
                    "name": "amount0",
                    "type": "uint256"
                },
                {
                    "indexed": false,
                    "internalType": "uint256",
                    "name": "amount1",
                    "type": "uint256"
                }
            ],
            "name": "Claim",
            "type": "event"
        },
        {
            "anonymous": false,
            "inputs": [],
            "name": "EIP712DomainChanged",
            "type": "event"
        },
        {
            "anonymous": false,
            "inputs": [
                {
                    "indexed": true,
                    "internalType": "address",
                    "name": "sender",
                    "type": "address"
                },
                {
                    "indexed": false,
                    "internalType": "uint256",
                    "name": "amount0",
                    "type": "uint256"
                },
                {
                    "indexed": false,
                    "internalType": "uint256",
                    "name": "amount1",
                    "type": "uint256"
                }
            ],
            "name": "Fees",
            "type": "event"
        },
        {
            "anonymous": false,
            "inputs": [
                {
                    "indexed": true,
                    "internalType": "address",
                    "name": "sender",
                    "type": "address"
                },
                {
                    "indexed": false,
                    "internalType": "uint256",
                    "name": "amount0",
                    "type": "uint256"
                },
                {
                    "indexed": false,
                    "internalType": "uint256",
                    "name": "amount1",
                    "type": "uint256"
                }
            ],
            "name": "Mint",
            "type": "event"
        },
        {
            "anonymous": false,
            "inputs": [
                {
                    "indexed": true,
                    "internalType": "address",
                    "name": "sender",
                    "type": "address"
                },
                {
                    "indexed": true,
                    "internalType": "address",
                    "name": "to",
                    "type": "address"
                },
                {
                    "indexed": false,
                    "internalType": "uint256",
                    "name": "amount0In",
                    "type": "uint256"
                },
                {
                    "indexed": false,
                    "internalType": "uint256",
                    "name": "amount1In",
                    "type": "uint256"
                },
                {
                    "indexed": false,
                    "internalType": "uint256",
                    "name": "amount0Out",
                    "type": "uint256"
                },
                {
                    "indexed": false,
                    "internalType": "uint256",
                    "name": "amount1Out",
                    "type": "uint256"
                }
            ],
            "name": "Swap",
            "type": "event"
        },
        {
            "anonymous": false,
            "inputs": [
                {
                    "indexed": false,
                    "internalType": "uint256",
                    "name": "reserve0",
                    "type": "uint256"
                },
                {
                    "indexed": false,
                    "internalType": "uint256",
                    "name": "reserve1",
                    "type": "uint256"
                }
            ],
            "name": "Sync",
            "type": "event"
        },
        {
            "anonymous": false,
            "inputs": [
                {
                    "indexed": true,
                    "internalType": "address",
                    "name": "from",
                    "type": "address"
                },
                {
                    "indexed": true,
                    "internalType": "address",
                    "name": "to",
                    "type": "address"
                },
                {
                    "indexed": false,
                    "internalType": "uint256",
                    "name": "value",
                    "type": "uint256"
                }
            ],
            "name": "Transfer",
            "type": "event"
        },
        {
            "inputs": [],
            "name": "DOMAIN_SEPARATOR",
            "outputs": [
                {
                    "internalType": "bytes32",
                    "name": "",
                    "type": "bytes32"
                }
            ],
            "stateMutability": "view",
            "type": "function"
        },
        {
            "inputs": [
                {
                    "internalType": "address",
                    "name": "owner",
                    "type": "address"
                },
                {
                    "internalType": "address",
                    "name": "spender",
                    "type": "address"
                }
            ],
            "name": "allowance",
            "outputs": [
                {
                    "internalType": "uint256",
                    "name": "",
                    "type": "uint256"
                }
            ],
            "stateMutability": "view",
            "type": "function"
        },
        {
            "inputs": [
                {
                    "internalType": "address",
                    "name": "spender",
                    "type": "address"
                },
                {
                    "internalType": "uint256",
                    "name": "amount",
                    "type": "uint256"
                }
            ],
            "name": "approve",
            "outputs": [
                {
                    "internalType": "bool",
                    "name": "",
                    "type": "bool"
                }
            ],
            "stateMutability": "nonpayable",
            "type": "function"
        },
        {
            "inputs": [
                {
                    "internalType": "address",
                    "name": "account",
                    "type": "address"
                }
            ],
            "name": "balanceOf",
            "outputs": [
                {
                    "internalType": "uint256",
                    "name": "",
                    "type": "uint256"
                }
            ],
            "stateMutability": "view",
            "type": "function"
        },
        {
            "inputs": [],
            "name": "blockTimestampLast",
            "outputs": [
                {
                    "internalType": "uint256",
                    "name": "",
                    "type": "uint256"
                }
            ],
            "stateMutability": "view",
            "type": "function"
        },
        {
            "inputs": [
                {
                    "internalType": "address",
                    "name": "to",
                    "type": "address"
                }
            ],
            "name": "burn",
            "outputs": [
                {
                    "internalType": "uint256",
                    "name": "amount0",
                    "type": "uint256"
                },
                {
                    "internalType": "uint256",
                    "name": "amount1",
                    "type": "uint256"
                }
            ],
            "stateMutability": "nonpayable",
            "type": "function"
        },
        {
            "inputs": [],
            "name": "claimFees",
            "outputs": [
                {
                    "internalType": "uint256",
                    "name": "claimed0",
                    "type": "uint256"
                },
                {
                    "internalType": "uint256",
                    "name": "claimed1",
                    "type": "uint256"
                }
            ],
            "stateMutability": "nonpayable",
            "type": "function"
        },
        {
            "inputs": [
                {
                    "internalType": "address",
                    "name": "",
                    "type": "address"
                }
            ],
            "name": "claimable0",
            "outputs": [
                {
                    "internalType": "uint256",
                    "name": "",
                    "type": "uint256"
                }
            ],
            "stateMutability": "view",
            "type": "function"
        },
        {
            "inputs": [
                {
                    "internalType": "address",
                    "name": "",
                    "type": "address"
                }
            ],
            "name": "claimable1",
            "outputs": [
                {
                    "internalType": "uint256",
                    "name": "",
                    "type": "uint256"
                }
            ],
            "stateMutability": "view",
            "type": "function"
        },
        {
            "inputs": [],
            "name": "currentCumulativePrices",
            "outputs": [
                {
                    "internalType": "uint256",
                    "name": "reserve0Cumulative",
                    "type": "uint256"
                },
                {
                    "internalType": "uint256",
                    "name": "reserve1Cumulative",
                    "type": "uint256"
                },
                {
                    "internalType": "uint256",
                    "name": "blockTimestamp",
                    "type": "uint256"
                }
            ],
            "stateMutability": "view",
            "type": "function"
        },
        {
            "inputs": [],
            "name": "decimals",
            "outputs": [
                {
                    "internalType": "uint8",
                    "name": "",
                    "type": "uint8"
                }
            ],
            "stateMutability": "view",
            "type": "function"
        },
        {
            "inputs": [
                {
                    "internalType": "address",
                    "name": "spender",
                    "type": "address"
                },
                {
                    "internalType": "uint256",
                    "name": "subtractedValue",
                    "type": "uint256"
                }
            ],
            "name": "decreaseAllowance",
            "outputs": [
                {
                    "internalType": "bool",
                    "name": "",
                    "type": "bool"
                }
            ],
            "stateMutability": "nonpayable",
            "type": "function"
        },
        {
            "inputs": [],
            "name": "eip712Domain",
            "outputs": [
                {
                    "internalType": "bytes1",
                    "name": "fields",
                    "type": "bytes1"
                },
                {
                    "internalType": "string",
                    "name": "name",
                    "type": "string"
                },
                {
                    "internalType": "string",
                    "name": "version",
                    "type": "string"
                },
                {
                    "internalType": "uint256",
                    "name": "chainId",
                    "type": "uint256"
                },
                {
                    "internalType": "address",
                    "name": "verifyingContract",
                    "type": "address"
                },
                {
                    "internalType": "bytes32",
                    "name": "salt",
                    "type": "bytes32"
                },
                {
                    "internalType": "uint256[]",
                    "name": "extensions",
                    "type": "uint256[]"
                }
            ],
            "stateMutability": "view",
            "type": "function"
        },
        {
            "inputs": [],
            "name": "factory",
            "outputs": [
                {
                    "internalType": "address",
                    "name": "",
                    "type": "address"
                }
            ],
            "stateMutability": "view",
            "type": "function"
        },
        {
            "inputs": [
                {
                    "internalType": "uint256",
                    "name": "amountIn",
                    "type": "uint256"
                },
                {
                    "internalType": "address",
                    "name": "tokenIn",
                    "type": "address"
                }
            ],
            "name": "getAmountOut",
            "outputs": [
                {
                    "internalType": "uint256",
                    "name": "",
                    "type": "uint256"
                }
            ],
            "stateMutability": "view",
            "type": "function"
        },
        {
            "inputs": [],
            "name": "getReserves",
            "outputs": [
                {
                    "internalType": "uint256",
                    "name": "_reserve0",
                    "type": "uint256"
                },
                {
                    "internalType": "uint256",
                    "name": "_reserve1",
                    "type": "uint256"
                },
                {
                    "internalType": "uint256",
                    "name": "_blockTimestampLast",
                    "type": "uint256"
                }
            ],
            "stateMutability": "view",
            "type": "function"
        },
        {
            "inputs": [
                {
                    "internalType": "address",
                    "name": "spender",
                    "type": "address"
                },
                {
                    "internalType": "uint256",
                    "name": "addedValue",
                    "type": "uint256"
                }
            ],
            "name": "increaseAllowance",
            "outputs": [
                {
                    "internalType": "bool",
                    "name": "",
                    "type": "bool"
                }
            ],
            "stateMutability": "nonpayable",
            "type": "function"
        },
        {
            "inputs": [],
            "name": "index0",
            "outputs": [
                {
                    "internalType": "uint256",
                    "name": "",
                    "type": "uint256"
                }
            ],
            "stateMutability": "view",
            "type": "function"
        },
        {
            "inputs": [],
            "name": "index1",
            "outputs": [
                {
                    "internalType": "uint256",
                    "name": "",
                    "type": "uint256"
                }
            ],
            "stateMutability": "view",
            "type": "function"
        },
        {
            "inputs": [
                {
                    "internalType": "address",
                    "name": "_token0",
                    "type": "address"
                },
                {
                    "internalType": "address",
                    "name": "_token1",
                    "type": "address"
                },
                {
                    "internalType": "bool",
                    "name": "_stable",
                    "type": "bool"
                }
            ],
            "name": "initialize",
            "outputs": [],
            "stateMutability": "nonpayable",
            "type": "function"
        },
        {
            "inputs": [],
            "name": "lastObservation",
            "outputs": [
                {
                    "components": [
                        {
                            "internalType": "uint256",
                            "name": "timestamp",
                            "type": "uint256"
                        },
                        {
                            "internalType": "uint256",
                            "name": "reserve0Cumulative",
                            "type": "uint256"
                        },
                        {
                            "internalType": "uint256",
                            "name": "reserve1Cumulative",
                            "type": "uint256"
                        }
                    ],
                    "internalType": "struct IPool.Observation",
                    "name": "",
                    "type": "tuple"
                }
            ],
            "stateMutability": "view",
            "type": "function"
        },
        {
            "inputs": [],
            "name": "metadata",
            "outputs": [
                {
                    "internalType": "uint256",
                    "name": "dec0",
                    "type": "uint256"
                },
                {
                    "internalType": "uint256",
                    "name": "dec1",
                    "type": "uint256"
                },
                {
                    "internalType": "uint256",
                    "name": "r0",
                    "type": "uint256"
                },
                {
                    "internalType": "uint256",
                    "name": "r1",
                    "type": "uint256"
                },
                {
                    "internalType": "bool",
                    "name": "st",
                    "type": "bool"
                },
                {
                    "internalType": "address",
                    "name": "t0",
                    "type": "address"
                },
                {
                    "internalType": "address",
                    "name": "t1",
                    "type": "address"
                }
            ],
            "stateMutability": "view",
            "type": "function"
        },
        {
            "inputs": [
                {
                    "internalType": "address",
                    "name": "to",
                    "type": "address"
                }
            ],
            "name": "mint",
            "outputs": [
                {
                    "internalType": "uint256",
                    "name": "liquidity",
                    "type": "uint256"
                }
            ],
            "stateMutability": "nonpayable",
            "type": "function"
        },
        {
            "inputs": [],
            "name": "name",
            "outputs": [
                {
                    "internalType": "string",
                    "name": "",
                    "type": "string"
                }
            ],
            "stateMutability": "view",
            "type": "function"
        },
        {
            "inputs": [
                {
                    "internalType": "address",
                    "name": "owner",
                    "type": "address"
                }
            ],
            "name": "nonces",
            "outputs": [
                {
                    "internalType": "uint256",
                    "name": "",
                    "type": "uint256"
                }
            ],
            "stateMutability": "view",
            "type": "function"
        },
        {
            "inputs": [],
            "name": "observationLength",
            "outputs": [
                {
                    "internalType": "uint256",
                    "name": "",
                    "type": "uint256"
                }
            ],
            "stateMutability": "view",
            "type": "function"
        },
        {
            "inputs": [
                {
                    "internalType": "uint256",
                    "name": "",
                    "type": "uint256"
                }
            ],
            "name": "observations",
            "outputs": [
                {
                    "internalType": "uint256",
                    "name": "timestamp",
                    "type": "uint256"
                },
                {
                    "internalType": "uint256",
                    "name": "reserve0Cumulative",
                    "type": "uint256"
                },
                {
                    "internalType": "uint256",
                    "name": "reserve1Cumulative",
                    "type": "uint256"
                }
            ],
            "stateMutability": "view",
            "type": "function"
        },
        {
            "inputs": [],
            "name": "periodSize",
            "outputs": [
                {
                    "internalType": "uint256",
                    "name": "",
                    "type": "uint256"
                }
            ],
            "stateMutability": "view",
            "type": "function"
        },
        {
            "inputs": [
                {
                    "internalType": "address",
                    "name": "owner",
                    "type": "address"
                },
                {
                    "internalType": "address",
                    "name": "spender",
                    "type": "address"
                },
                {
                    "internalType": "uint256",
                    "name": "value",
                    "type": "uint256"
                },
                {
                    "internalType": "uint256",
                    "name": "deadline",
                    "type": "uint256"
                },
                {
                    "internalType": "uint8",
                    "name": "v",
                    "type": "uint8"
                },
                {
                    "internalType": "bytes32",
                    "name": "r",
                    "type": "bytes32"
                },
                {
                    "internalType": "bytes32",
                    "name": "s",
                    "type": "bytes32"
                }
            ],
            "name": "permit",
            "outputs": [],
            "stateMutability": "nonpayable",
            "type": "function"
        },
        {
            "inputs": [],
            "name": "poolFees",
            "outputs": [
                {
                    "internalType": "address",
                    "name": "",
                    "type": "address"
                }
            ],
            "stateMutability": "view",
            "type": "function"
        },
        {
            "inputs": [
                {
                    "internalType": "address",
                    "name": "tokenIn",
                    "type": "address"
                },
                {
                    "internalType": "uint256",
                    "name": "amountIn",
                    "type": "uint256"
                },
                {
                    "internalType": "uint256",
                    "name": "points",
                    "type": "uint256"
                }
            ],
            "name": "prices",
            "outputs": [
                {
                    "internalType": "uint256[]",
                    "name": "",
                    "type": "uint256[]"
                }
            ],
            "stateMutability": "view",
            "type": "function"
        },
        {
            "inputs": [
                {
                    "internalType": "address",
                    "name": "tokenIn",
                    "type": "address"
                },
                {
                    "internalType": "uint256",
                    "name": "amountIn",
                    "type": "uint256"
                },
                {
                    "internalType": "uint256",
                    "name": "granularity",
                    "type": "uint256"
                }
            ],
            "name": "quote",
            "outputs": [
                {
                    "internalType": "uint256",
                    "name": "amountOut",
                    "type": "uint256"
                }
            ],
            "stateMutability": "view",
            "type": "function"
        },
        {
            "inputs": [],
            "name": "reserve0",
            "outputs": [
                {
                    "internalType": "uint256",
                    "name": "",
                    "type": "uint256"
                }
            ],
            "stateMutability": "view",
            "type": "function"
        },
        {
            "inputs": [],
            "name": "reserve0CumulativeLast",
            "outputs": [
                {
                    "internalType": "uint256",
                    "name": "",
                    "type": "uint256"
                }
            ],
            "stateMutability": "view",
            "type": "function"
        },
        {
            "inputs": [],
            "name": "reserve1",
            "outputs": [
                {
                    "internalType": "uint256",
                    "name": "",
                    "type": "uint256"
                }
            ],
            "stateMutability": "view",
            "type": "function"
        },
        {
            "inputs": [],
            "name": "reserve1CumulativeLast",
            "outputs": [
                {
                    "internalType": "uint256",
                    "name": "",
                    "type": "uint256"
                }
            ],
            "stateMutability": "view",
            "type": "function"
        },
        {
            "inputs": [
                {
                    "internalType": "address",
                    "name": "tokenIn",
                    "type": "address"
                },
                {
                    "internalType": "uint256",
                    "name": "amountIn",
                    "type": "uint256"
                },
                {
                    "internalType": "uint256",
                    "name": "points",
                    "type": "uint256"
                },
                {
                    "internalType": "uint256",
                    "name": "window",
                    "type": "uint256"
                }
            ],
            "name": "sample",
            "outputs": [
                {
                    "internalType": "uint256[]",
                    "name": "",
                    "type": "uint256[]"
                }
            ],
            "stateMutability": "view",
            "type": "function"
        },
        {
            "inputs": [
                {
                    "internalType": "string",
                    "name": "__name",
                    "type": "string"
                }
            ],
            "name": "setName",
            "outputs": [],
            "stateMutability": "nonpayable",
            "type": "function"
        },
        {
            "inputs": [
                {
                    "internalType": "string",
                    "name": "__symbol",
                    "type": "string"
                }
            ],
            "name": "setSymbol",
            "outputs": [],
            "stateMutability": "nonpayable",
            "type": "function"
        },
        {
            "inputs": [
                {
                    "internalType": "address",
                    "name": "to",
                    "type": "address"
                }
            ],
            "name": "skim",
            "outputs": [],
            "stateMutability": "nonpayable",
            "type": "function"
        },
        {
            "inputs": [],
            "name": "stable",
            "outputs": [
                {
                    "internalType": "bool",
                    "name": "",
                    "type": "bool"
                }
            ],
            "stateMutability": "view",
            "type": "function"
        },
        {
            "inputs": [
                {
                    "internalType": "address",
                    "name": "",
                    "type": "address"
                }
            ],
            "name": "supplyIndex0",
            "outputs": [
                {
                    "internalType": "uint256",
                    "name": "",
                    "type": "uint256"
                }
            ],
            "stateMutability": "view",
            "type": "function"
        },
        {
            "inputs": [
                {
                    "internalType": "address",
                    "name": "",
                    "type": "address"
                }
            ],
            "name": "supplyIndex1",
            "outputs": [
                {
                    "internalType": "uint256",
                    "name": "",
                    "type": "uint256"
                }
            ],
            "stateMutability": "view",
            "type": "function"
        },
        {
            "inputs": [
                {
                    "internalType": "uint256",
                    "name": "amount0Out",
                    "type": "uint256"
                },
                {
                    "internalType": "uint256",
                    "name": "amount1Out",
                    "type": "uint256"
                },
                {
                    "internalType": "address",
                    "name": "to",
                    "type": "address"
                },
                {
                    "internalType": "bytes",
                    "name": "data",
                    "type": "bytes"
                }
            ],
            "name": "swap",
            "outputs": [],
            "stateMutability": "nonpayable",
            "type": "function"
        },
        {
            "inputs": [],
            "name": "symbol",
            "outputs": [
                {
                    "internalType": "string",
                    "name": "",
                    "type": "string"
                }
            ],
            "stateMutability": "view",
            "type": "function"
        },
        {
            "inputs": [],
            "name": "sync",
            "outputs": [],
            "stateMutability": "nonpayable",
            "type": "function"
        },
        {
            "inputs": [],
            "name": "token0",
            "outputs": [
                {
                    "internalType": "address",
                    "name": "",
                    "type": "address"
                }
            ],
            "stateMutability": "view",
            "type": "function"
        },
        {
            "inputs": [],
            "name": "token1",
            "outputs": [
                {
                    "internalType": "address",
                    "name": "",
                    "type": "address"
                }
            ],
            "stateMutability": "view",
            "type": "function"
        },
        {
            "inputs": [],
            "name": "tokens",
            "outputs": [
                {
                    "internalType": "address",
                    "name": "",
                    "type": "address"
                },
                {
                    "internalType": "address",
                    "name": "",
                    "type": "address"
                }
            ],
            "stateMutability": "view",
            "type": "function"
        },
        {
            "inputs": [],
            "name": "totalSupply",
            "outputs": [
                {
                    "internalType": "uint256",
                    "name": "",
                    "type": "uint256"
                }
            ],
            "stateMutability": "view",
            "type": "function"
        },
        {
            "inputs": [
                {
                    "internalType": "address",
                    "name": "to",
                    "type": "address"
                },
                {
                    "internalType": "uint256",
                    "name": "amount",
                    "type": "uint256"
                }
            ],
            "name": "transfer",
            "outputs": [
                {
                    "internalType": "bool",
                    "name": "",
                    "type": "bool"
                }
            ],
            "stateMutability": "nonpayable",
            "type": "function"
        },
        {
            "inputs": [
                {
                    "internalType": "address",
                    "name": "from",
                    "type": "address"
                },
                {
                    "internalType": "address",
                    "name": "to",
                    "type": "address"
                },
                {
                    "internalType": "uint256",
                    "name": "amount",
                    "type": "uint256"
                }
            ],
            "name": "transferFrom",
            "outputs": [
                {
                    "internalType": "bool",
                    "name": "",
                    "type": "bool"
                }
            ],
            "stateMutability": "nonpayable",
            "type": "function"
        }
    ],
    "bytecode": {
        "object": "0x61016060405260006019556000601a553480156200001c57600080fd5b50604080516020808201835260008083528351808501855260018152603160f81b818401528451808401865282815285519384019095529082529192839291600362000069838262000269565b50600462000078828262000269565b506200008a915083905060056200013f565b60e0526200009a8160066200013f565b61010052815160208084019190912061012052815190820120610140524660a0526200012a6101205161014051604080517f8b73c3c69bb8fe3d512ecc4cf759cc79239f7b179b0ffacaa9a75d522b39400f60208201529081019290925260608201524660808201523060a082015260009060c00160405160208183030381529060405280519060200120905090565b60805250503060c052506001600955620003aa565b60006020835110156200015f57620001578362000178565b905062000172565b816200016c848262000269565b50600090505b92915050565b600080829050601f81511115620001af578260405163305a27a960e01b8152600401620001a6919062000335565b60405180910390fd5b8051620001bc8262000385565b179392505050565b634e487b7160e01b600052604160045260246000fd5b600181811c90821680620001ef57607f821691505b6020821081036200021057634e487b7160e01b600052602260045260246000fd5b50919050565b601f8211156200026457600081815260208120601f850160051c810160208610156200023f5750805b601f850160051c820191505b8181101562000260578281556001016200024b565b5050505b505050565b81516001600160401b03811115620002855762000285620001c4565b6200029d81620002968454620001da565b8462000216565b602080601f831160018114620002d55760008415620002bc5750858301515b600019600386901b1c1916600185901b17855562000260565b600085815260208120601f198616915b828110156200030657888601518255948401946001909101908401620002e5565b5085821015620003255787850151600019600388901b60f8161c191681555b5050505050600190811b01905550565b600060208083528351808285015260005b81811015620003645785810183015185820160400152820162000346565b506000604082860101526040601f19601f8301168501019250505092915050565b80516020808301519190811015620002105760001960209190910360031b1b16919050565b60805160a05160c05160e0516101005161012051610140516151f6620004056000396000613226015260006131fe01526000611625015260006115f80152600061315601526000613181015260006131ac01526151f66000f3fe60806040523480156200001157600080fd5b50600436106200034d5760003560e01c806389afcb4411620001bf578063c245febc11620000fc578063d505accf11620000af578063e4bbb5a81162000086578063e4bbb5a81462000817578063ebeb31db146200082e578063f140a35a1462000837578063fff6cae9146200084e57600080fd5b8063d505accf14620007df578063dd62ed3e14620007f6578063e4463eb2146200080d57600080fd5b8063c245febc1462000782578063c45a0155146200078c578063c47f002714620007a0578063c5700a0214620007b7578063d21220a714620007c1578063d294f09314620007d557600080fd5b8063a1ac4d131162000172578063b84c82461162000149578063b84c82461462000740578063bc25cf771462000757578063bda39cad146200076e578063bf944dbc146200077857600080fd5b8063a1ac4d1314620006ef578063a457c2d71462000712578063a9059cbb146200072957600080fd5b806389afcb44146200062a5780638a7b8cf2146200065757806395d89b4114620006845780639d63848a146200068e5780639e8cc04b14620006b55780639f767c8814620006cc57600080fd5b806332c0defd116200028e5780634d5a9f8a11620002415780636a62784211620002185780636a62784214620005b157806370a0823114620005c85780637ecebe0014620005f457806384b0196e146200060b57600080fd5b80634d5a9f8a146200056d5780635881c47514620005905780635a76f25e14620005a757600080fd5b806332c0defd14620004c15780633358095914620004cb5780633644e51514620004df578063392f37e914620004e957806339509351146200054c578063443cb4bc146200056357600080fd5b806318160ddd116200030457806322be3de111620002db57806322be3de1146200046e57806323b872dd1462000483578063252c09d7146200049a578063313ce56714620004b157600080fd5b806318160ddd146200042e5780631df8c7171462000441578063205aabf1146200044b57600080fd5b8063022c0d9f146200035257806306fdde03146200036b5780630902f1ac146200038d578063095ea7b314620003b35780630dfe168114620003db57806313345fe11462000408575b600080fd5b620003696200036336600462004100565b62000858565b005b6200037562000ee2565b604051620003849190620041c4565b60405180910390f35b6014546015546016545b6040805193845260208401929092529082015260600162000384565b620003ca620003c4366004620041d9565b62000f7c565b604051901515815260200162000384565b600d54620003ef906001600160a01b031681565b6040516001600160a01b03909116815260200162000384565b6200041f6200041936600462004208565b62000f98565b60405162000384919062004283565b6002545b60405190815260200162000384565b62000397620011c5565b620004326200045c36600462004298565b601c6020526000908152604090205481565b600c54620003ca90600160a01b900460ff1681565b620003ca62000494366004620042b8565b62001240565b62000397620004ab366004620042fe565b6200126a565b6040516012815260200162000384565b6200043260195481565b600f54620003ef906001600160a01b031681565b620004326200129e565b601254601354601454601554600c54600d54600e54604080519788526020880196909652948601939093526060850191909152600160a01b900460ff16151560808401526001600160a01b0390811660a08401521660c082015260e00162000384565b620003ca6200055d366004620041d9565b620012af565b6200043260145481565b620004326200057e36600462004298565b601d6020526000908152604090205481565b6200041f620005a136600462004318565b620012d7565b6200043260155481565b62000432620005c236600462004298565b620012e8565b62000432620005d936600462004298565b6001600160a01b031660009081526020819052604090205490565b620004326200060536600462004298565b620015ca565b62000615620015e9565b60405162000384979695949392919062004350565b620006416200063b36600462004298565b62001676565b6040805192835260208301919091520162000384565b620006616200196c565b604080518251815260208084015190820152918101519082015260600162000384565b62000375620019f2565b600d54600e54604080516001600160a01b0393841681529290911660208301520162000384565b62000432620006c636600462004318565b62001a03565b62000432620006dd36600462004298565b601b6020526000908152604090205481565b620004326200070036600462004298565b601e6020526000908152604090205481565b620003ca62000723366004620041d9565b62001a81565b620003ca6200073a366004620041d9565b62001b11565b6200036962000751366004620043c6565b62001b21565b620003696200076836600462004298565b62001be1565b62000432601a5481565b6200043260175481565b6200043260185481565b601054620003ef906001600160a01b031681565b62000369620007b1366004620043c6565b62001d2e565b6200043260165481565b600e54620003ef906001600160a01b031681565b6200064162001de9565b62000369620007f03660046200441c565b62001f14565b620004326200080736600462004494565b62002084565b6200043261070881565b6200036962000828366004620044e1565b620020af565b60115462000432565b620004326200084836600462004533565b6200255d565b620003696200262d565b6200086262002731565b601060009054906101000a90046001600160a01b03166001600160a01b031663b187bd266040518163ffffffff1660e01b8152600401602060405180830381865afa158015620008b6573d6000803e3d6000fd5b505050506040513d601f19601f82011682018060405250810190620008dc91906200455b565b15620008fb57604051631309a56360e01b815260040160405180910390fd5b8415801562000908575083155b1562000927576040516342301c2360e01b815260040160405180910390fd5b60145460155481871015806200093d5750808610155b156200095c5760405163bb55fd2760e01b815260040160405180910390fd5b600d54600e5460009182916001600160a01b0391821691908116908916821480620009985750806001600160a01b0316896001600160a01b0316145b15620009b757604051630521f43160e31b815260040160405180910390fd5b8a15620009d457620009d46001600160a01b0383168a8d6200278c565b8915620009f157620009f16001600160a01b0382168a8c6200278c565b861562000a6357604051639a7bff7960e01b81526001600160a01b038a1690639a7bff799062000a2e9033908f908f908e908e906004016200457b565b600060405180830381600087803b15801562000a4957600080fd5b505af115801562000a5e573d6000803e3d6000fd5b505050505b6040516370a0823160e01b81523060048201526001600160a01b038316906370a0823190602401602060405180830381865afa15801562000aa8573d6000803e3d6000fd5b505050506040513d601f19601f8201168201806040525081019062000ace9190620045c7565b6040516370a0823160e01b81523060048201529094506001600160a01b038216906370a0823190602401602060405180830381865afa15801562000b16573d6000803e3d6000fd5b505050506040513d601f19601f8201168201806040525081019062000b3c9190620045c7565b925050506000898562000b509190620045f7565b831162000b5f57600062000b77565b62000b6b8a86620045f7565b62000b779084620045f7565b9050600062000b878a86620045f7565b831162000b9657600062000bae565b62000ba28a86620045f7565b62000bae9084620045f7565b90508115801562000bbd575080155b1562000bdc5760405163098fb56160e01b815260040160405180910390fd5b600d54600e546001600160a01b039182169116831562000ca157601054600c5460405163cc56b2c560e01b8152306004820152600160a01b90910460ff161515602482015262000ca191612710916001600160a01b039091169063cc56b2c590604401602060405180830381865afa15801562000c5d573d6000803e3d6000fd5b505050506040513d601f19601f8201168201806040525081019062000c839190620045c7565b62000c8f90876200460d565b62000c9b91906200463d565b620027e0565b821562000d5357601054600c5460405163cc56b2c560e01b8152306004820152600160a01b90910460ff161515602482015262000d5391612710916001600160a01b039091169063cc56b2c590604401602060405180830381865afa15801562000d0f573d6000803e3d6000fd5b505050506040513d601f19601f8201168201806040525081019062000d359190620045c7565b62000d4190866200460d565b62000d4d91906200463d565b6200289a565b6040516370a0823160e01b81523060048201526001600160a01b038316906370a0823190602401602060405180830381865afa15801562000d98573d6000803e3d6000fd5b505050506040513d601f19601f8201168201806040525081019062000dbe9190620045c7565b6040516370a0823160e01b81523060048201529096506001600160a01b038216906370a0823190602401602060405180830381865afa15801562000e06573d6000803e3d6000fd5b505050506040513d601f19601f8201168201806040525081019062000e2c9190620045c7565b945062000e3a88886200294e565b62000e4687876200294e565b101562000e665760405163a932492f60e01b815260040160405180910390fd5b505062000e768484888862002a6d565b60408051838152602081018390528082018d9052606081018c905290516001600160a01b038b169133917fb3e2773606abfd36b5bd91394b3a54d1398336c65005baf7bf7a05efeffaf75b9181900360800190a350505050505062000edb6001600955565b5050505050565b6060600a805462000ef39062004660565b80601f016020809104026020016040519081016040528092919081815260200182805462000f219062004660565b801562000f725780601f1062000f465761010080835404028352916020019162000f72565b820191906000526020600020905b81548152906001019060200180831162000f5457829003601f168201915b5050505050905090565b60003362000f8c81858562002c13565b60019150505b92915050565b606060008367ffffffffffffffff81111562000fb85762000fb862004696565b60405190808252806020026020018201604052801562000fe2578160200160208202803683370190505b5060115490915060009062000ffa90600190620045f7565b905060006200100a85876200460d565b620010169083620045f7565b90506000805b83831015620011b557620010318784620046ac565b91506000601184815481106200104b576200104b620046c2565b90600052602060002090600302016000015460118481548110620010735762001073620046c2565b906000526020600020906003020160000154620010919190620045f7565b905060008160118681548110620010ac57620010ac620046c2565b90600052602060002090600302016001015460118681548110620010d457620010d4620046c2565b906000526020600020906003020160010154620010f29190620045f7565b620010fe91906200463d565b905060008260118781548110620011195762001119620046c2565b90600052602060002090600302016002015460118781548110620011415762001141620046c2565b9060005260206000209060030201600201546200115f9190620045f7565b6200116b91906200463d565b90506200117b8c8e848462002d3b565b888581518110620011905762001190620046c2565b6020908102919091010152505050600101620011ad8784620046ac565b92506200101c565b509293505050505b949350505050565b6017546018544260008080620011e46014546015546016549192909190565b92509250925083811462001238576000620012008286620045f7565b90506200120e81856200460d565b6200121a9088620046ac565b96506200122881846200460d565b620012349087620046ac565b9550505b505050909192565b6000336200125085828562002f10565b6200125d85858562002f91565b60019150505b9392505050565b601181815481106200127b57600080fd5b600091825260209091206003909102018054600182015460029092015490925083565b6000620012aa62003149565b905090565b60003362000f8c818585620012c5838362002084565b620012d19190620046ac565b62002c13565b6060620011bd848484600162000f98565b6000620012f462002731565b601454601554600d546040516370a0823160e01b81523060048201526000916001600160a01b0316906370a0823190602401602060405180830381865afa15801562001344573d6000803e3d6000fd5b505050506040513d601f19601f820116820180604052508101906200136a9190620045c7565b600e546040516370a0823160e01b81523060048201529192506000916001600160a01b03909116906370a0823190602401602060405180830381865afa158015620013b9573d6000803e3d6000fd5b505050506040513d601f19601f82011682018060405250810190620013df9190620045c7565b90506000620013ef8584620045f7565b90506000620013ff8584620045f7565b905060006200140d60025490565b905080600003620014fd576103e8620014316200142b84866200460d565b62003277565b6200143d9190620045f7565b97506200144e60016103e86200337c565b600c54600160a01b900460ff1615620014f7576013546200147883670de0b6b3a76400006200460d565b6200148491906200463d565b6012546200149b85670de0b6b3a76400006200460d565b620014a791906200463d565b14620014c6576040516305026bfd60e11b815260040160405180910390fd5b6402540be400620014d884846200294e565b11620014f7576040516321c69d6f60e11b815260040160405180910390fd5b6200153c565b62001539876200150e83866200460d565b6200151a91906200463d565b876200152784866200460d565b6200153391906200463d565b6200344d565b97505b876000036200155e57604051633489be7560e21b815260040160405180910390fd5b6200156a89896200337c565b620015788585898962002a6d565b604080518481526020810184905233917f4c209b5fc8ad50758f13e2e1088ba56a560dff690a1c6fef26394f4c03821c4f910160405180910390a250505050505050620015c56001600955565b919050565b6001600160a01b03811660009081526007602052604081205462000f92565b6000606080828080836200161f7f0000000000000000000000000000000000000000000000000000000000000000600562003465565b6200164c7f0000000000000000000000000000000000000000000000000000000000000000600662003465565b60408051600080825260208201909252600f60f81b9b939a50919850469750309650945092509050565b6000806200168362002731565b601454601554600d54600e546040516370a0823160e01b81523060048201526001600160a01b03928316929091169060009083906370a0823190602401602060405180830381865afa158015620016de573d6000803e3d6000fd5b505050506040513d601f19601f82011682018060405250810190620017049190620045c7565b6040516370a0823160e01b81523060048201529091506000906001600160a01b038416906370a0823190602401602060405180830381865afa1580156200174f573d6000803e3d6000fd5b505050506040513d601f19601f82011682018060405250810190620017759190620045c7565b3060009081526020819052604090205460025491925090806200179985846200460d565b620017a591906200463d565b995080620017b484846200460d565b620017c091906200463d565b9850891580620017ce575088155b15620017ed5760405163749383ad60e01b815260040160405180910390fd5b620017f9308362003516565b6200180f6001600160a01b0387168c8c6200278c565b620018256001600160a01b0386168c8b6200278c565b6040516370a0823160e01b81523060048201526001600160a01b038716906370a0823190602401602060405180830381865afa1580156200186a573d6000803e3d6000fd5b505050506040513d601f19601f82011682018060405250810190620018909190620045c7565b6040516370a0823160e01b81523060048201529094506001600160a01b038616906370a0823190602401602060405180830381865afa158015620018d8573d6000803e3d6000fd5b505050506040513d601f19601f82011682018060405250810190620018fe9190620045c7565b92506200190e84848a8a62002a6d565b604080518b8152602081018b90526001600160a01b038d169133917f5d624aa9c148153ab3446c1b154f660ee7701e549fe9b62dab7171b1c80e6fa2910160405180910390a35050505050505050620019676001600955565b915091565b6200199160405180606001604052806000815260200160008152602001600081525090565b60118054620019a390600190620045f7565b81548110620019b657620019b6620046c2565b90600052602060002090600302016040518060600160405290816000820154815260200160018201548152602001600282015481525050905090565b6060600b805462000ef39062004660565b60008062001a15858585600162000f98565b8051909150600090815b8181101562001a695783818151811062001a3d5762001a3d620046c2565b60200260200101518362001a529190620046ac565b92508062001a6081620046d8565b91505062001a1f565b5062001a7685836200463d565b979650505050505050565b6000338162001a91828662002084565b90508381101562001af75760405162461bcd60e51b815260206004820152602560248201527f45524332303a2064656372656173656420616c6c6f77616e63652062656c6f77604482015264207a65726f60d81b60648201526084015b60405180910390fd5b62001b06828686840362002c13565b506001949350505050565b60003362000f8c81858562002f91565b600c60009054906101000a90046001600160a01b03166001600160a01b0316637778960e6040518163ffffffff1660e01b8152600401602060405180830381865afa15801562001b75573d6000803e3d6000fd5b505050506040513d601f19601f8201168201806040525081019062001b9b9190620046f4565b6001600160a01b0316336001600160a01b03161462001bcd5760405163c560129360e01b815260040160405180910390fd5b600b62001bdc82848362004766565b505050565b62001beb62002731565b600d54600e546014546040516370a0823160e01b81523060048201526001600160a01b03938416939092169162001c8b91859185906370a0823190602401602060405180830381865afa15801562001c47573d6000803e3d6000fd5b505050506040513d601f19601f8201168201806040525081019062001c6d9190620045c7565b62001c799190620045f7565b6001600160a01b03851691906200278c565b6015546040516370a0823160e01b815230600482015262001d1e9185916001600160a01b038516906370a0823190602401602060405180830381865afa15801562001cda573d6000803e3d6000fd5b505050506040513d601f19601f8201168201806040525081019062001d009190620045c7565b62001d0c9190620045f7565b6001600160a01b03841691906200278c565b505062001d2b6001600955565b50565b600c60009054906101000a90046001600160a01b03166001600160a01b0316637778960e6040518163ffffffff1660e01b8152600401602060405180830381865afa15801562001d82573d6000803e3d6000fd5b505050506040513d601f19601f8201168201806040525081019062001da89190620046f4565b6001600160a01b0316336001600160a01b03161462001dda5760405163c560129360e01b815260040160405180910390fd5b600a62001bdc82848362004766565b6000803362001df8816200365a565b6001600160a01b0381166000908152601d6020908152604080832054601e9092529091205490935091508215158062001e315750600082115b1562001f0f576001600160a01b038181166000818152601d60209081526040808320839055601e90915280822091909155600f54905163299e7ae760e11b8152600481019290925260248201869052604482018590529091169063533cf5ce90606401600060405180830381600087803b15801562001eaf57600080fd5b505af115801562001ec4573d6000803e3d6000fd5b505060408051868152602081018690526001600160a01b03851693508392507f865ca08d59f5cb456e85cd2f7ef63664ea4f73327414e9d8152c4158b0e94645910160405180910390a35b509091565b8342111562001f665760405162461bcd60e51b815260206004820152601d60248201527f45524332305065726d69743a206578706972656420646561646c696e65000000604482015260640162001aee565b60007f6e71edae12b1b97f4d1f60370fef10105fa2faae0126114a169c64845d6126c988888862001f978c620037cd565b6040805160208101969096526001600160a01b0394851690860152929091166060840152608083015260a082015260c0810186905260e001604051602081830303815290604052805190602001209050600062001ff482620037f5565b90506000620020068287878762003825565b9050896001600160a01b0316816001600160a01b0316146200206b5760405162461bcd60e51b815260206004820152601e60248201527f45524332305065726d69743a20696e76616c6964207369676e61747572650000604482015260640162001aee565b620020788a8a8a62002c13565b50505050505050505050565b6001600160a01b03918216600090815260016020908152604080832093909416825291909152205490565b6010546001600160a01b031615620020da576040516302a98a3760e31b815260040160405180910390fd5b601080546001600160a01b03191633908117909155604080516311b25aab60e21b815290516346c96aac916004808201926020929091908290030181865afa1580156200212b573d6000803e3d6000fd5b505050506040513d601f19601f82011682018060405250810190620021519190620046f4565b600c80546001600160a01b039283166001600160a81b031990911617600160a01b84151502179055600e80546001600160a01b031990811685841617909155600d805490911691851691909117905560405183908390620021b29062004090565b6001600160a01b03928316815291166020820152604001604051809103906000f080158015620021e6573d6000803e3d6000fd5b50600f60006101000a8154816001600160a01b0302191690836001600160a01b031602179055506000836001600160a01b03166395d89b416040518163ffffffff1660e01b8152600401600060405180830381865afa1580156200224e573d6000803e3d6000fd5b505050506040513d6000823e601f3d908101601f1916820160405262002278919081019062004833565b90506000836001600160a01b03166395d89b416040518163ffffffff1660e01b8152600401600060405180830381865afa158015620022bb573d6000803e3d6000fd5b505050506040513d6000823e601f3d908101601f19168201604052620022e5919081019062004833565b905082156200235e57818160405160200162002303929190620048e1565b604051602081830303815290604052600a90816200232291906200493c565b5081816040516020016200233892919062004a09565b604051602081830303815290604052600b90816200235791906200493c565b50620023c9565b81816040516020016200237392919062004a5c565b604051602081830303815290604052600a90816200239291906200493c565b508181604051602001620023a892919062004ab9565b604051602081830303815290604052600b9081620023c791906200493c565b505b846001600160a01b031663313ce5676040518163ffffffff1660e01b8152600401602060405180830381865afa15801562002408573d6000803e3d6000fd5b505050506040513d601f19601f820116820180604052508101906200242e919062004add565b6200243b90600a62004bfa565b601281905550836001600160a01b031663313ce5676040518163ffffffff1660e01b8152600401602060405180830381865afa15801562002480573d6000803e3d6000fd5b505050506040513d601f19601f82011682018060405250810190620024a6919062004add565b620024b390600a62004bfa565b60135550506040805160608101825242815260006020820181815292820181815260118054600181018255925291517f31ecc21a745e3968a04e9570e4425bc18fa8019c68028196b546d1669c200c6860039092029182015591517f31ecc21a745e3968a04e9570e4425bc18fa8019c68028196b546d1669c200c69830155517f31ecc21a745e3968a04e9570e4425bc18fa8019c68028196b546d1669c200c6a90910155505050565b601454601554601054600c5460405163cc56b2c560e01b8152306004820152600160a01b90910460ff16151560248201526000939291612710916001600160a01b039091169063cc56b2c590604401602060405180830381865afa158015620025ca573d6000803e3d6000fd5b505050506040513d601f19601f82011682018060405250810190620025f09190620045c7565b620025fc90876200460d565b6200260891906200463d565b620026149086620045f7565b9450620026248585848462002d3b565b95945050505050565b6200263762002731565b600d546040516370a0823160e01b815230600482015262002724916001600160a01b0316906370a0823190602401602060405180830381865afa15801562002683573d6000803e3d6000fd5b505050506040513d601f19601f82011682018060405250810190620026a99190620045c7565b600e546040516370a0823160e01b81523060048201526001600160a01b03909116906370a0823190602401602060405180830381865afa158015620026f2573d6000803e3d6000fd5b505050506040513d601f19601f82011682018060405250810190620027189190620045c7565b60145460155462002a6d565b6200272f6001600955565b565b600260095403620027855760405162461bcd60e51b815260206004820152601f60248201527f5265656e7472616e637947756172643a207265656e7472616e742063616c6c00604482015260640162001aee565b6002600955565b604080516001600160a01b038416602482015260448082018490528251808303909101815260649091019091526020810180516001600160e01b031663a9059cbb60e01b17905262001bdc90849062003851565b80600003620027ec5750565b600f54600d546200280b916001600160a01b039182169116836200278c565b60006200281760025490565b6200282b83670de0b6b3a76400006200460d565b6200283791906200463d565b905080156200285a578060196000828254620028549190620046ac565b90915550505b604080518381526000602082015233917f112c256902bf554b6ed882d2936687aaeb4225e8cd5b51303c90ca6cf43a860291015b60405180910390a25050565b80600003620028a65750565b600f54600e54620028c5916001600160a01b039182169116836200278c565b6000620028d160025490565b620028e583670de0b6b3a76400006200460d565b620028f191906200463d565b90508015620029145780601a60008282546200290e9190620046ac565b90915550505b60408051600081526020810184905233917f112c256902bf554b6ed882d2936687aaeb4225e8cd5b51303c90ca6cf43a860291016200288e565b600c54600090600160a01b900460ff161562002a59576012546000906200297e85670de0b6b3a76400006200460d565b6200298a91906200463d565b9050600060135484670de0b6b3a7640000620029a791906200460d565b620029b391906200463d565b90506000670de0b6b3a7640000620029cc83856200460d565b620029d891906200463d565b90506000670de0b6b3a7640000620029f184806200460d565b620029fd91906200463d565b670de0b6b3a764000062002a1286806200460d565b62002a1e91906200463d565b62002a2a9190620046ac565b9050670de0b6b3a764000062002a4182846200460d565b62002a4d91906200463d565b94505050505062000f92565b62002a6582846200460d565b905062000f92565b601654429060009062002a819083620045f7565b905060008111801562002a9357508315155b801562002a9f57508215155b1562002aef5762002ab181856200460d565b6017600082825462002ac49190620046ac565b9091555062002ad6905081846200460d565b6018600082825462002ae99190620046ac565b90915550505b600062002afb6200196c565b805190915062002b0c9084620045f7565b915061070882111562002bc25760408051606081018252848152601754602082019081526018549282019283526011805460018101825560009190915291517f31ecc21a745e3968a04e9570e4425bc18fa8019c68028196b546d1669c200c68600390930292830155517f31ecc21a745e3968a04e9570e4425bc18fa8019c68028196b546d1669c200c6982015590517f31ecc21a745e3968a04e9570e4425bc18fa8019c68028196b546d1669c200c6a909101555b60148790556015869055601683905560408051888152602081018890527fcf2aa50876cdfbb541206f89af0ee78d44a2abf8d328e37fa4917f982149848a910160405180910390a150505050505050565b6001600160a01b03831662002c775760405162461bcd60e51b8152602060048201526024808201527f45524332303a20617070726f76652066726f6d20746865207a65726f206164646044820152637265737360e01b606482015260840162001aee565b6001600160a01b03821662002cda5760405162461bcd60e51b815260206004820152602260248201527f45524332303a20617070726f766520746f20746865207a65726f206164647265604482015261737360f01b606482015260840162001aee565b6001600160a01b0383811660008181526001602090815260408083209487168084529482529182902085905590518481527f8c5be1e5ebec7d5bd14f71427d1e84f3dd0314c0f7b2291e5b200ac8c7c3b925910160405180910390a3505050565b600c54600090600160a01b900460ff161562002eb757600062002d5f84846200294e565b60125490915062002d7985670de0b6b3a76400006200460d565b62002d8591906200463d565b60135490945062002d9f84670de0b6b3a76400006200460d565b62002dab91906200463d565b600d5490935060009081906001600160a01b0388811691161462002dd157848662002dd4565b85855b600d5491935091506001600160a01b0388811691161462002e185760135462002e0689670de0b6b3a76400006200460d565b62002e1291906200463d565b62002e3b565b60125462002e2f89670de0b6b3a76400006200460d565b62002e3b91906200463d565b9750600062002e5762002e4f848b620046ac565b85846200392a565b62002e639083620045f7565b600d54909150670de0b6b3a7640000906001600160a01b038a811691161462002e8f5760125462002e93565b6013545b62002e9f90836200460d565b62002eab91906200463d565b945050505050620011bd565b600d5460009081906001600160a01b0387811691161462002eda57838562002edd565b84845b909250905062002eee8783620046ac565b62002efa82896200460d565b62002f0691906200463d565b92505050620011bd565b600062002f1e848462002084565b9050600019811462002f8b578181101562002f7c5760405162461bcd60e51b815260206004820152601d60248201527f45524332303a20696e73756666696369656e7420616c6c6f77616e6365000000604482015260640162001aee565b62002f8b848484840362002c13565b50505050565b6001600160a01b03831662002ff75760405162461bcd60e51b815260206004820152602560248201527f45524332303a207472616e736665722066726f6d20746865207a65726f206164604482015264647265737360d81b606482015260840162001aee565b6001600160a01b0382166200305b5760405162461bcd60e51b815260206004820152602360248201527f45524332303a207472616e7366657220746f20746865207a65726f206164647260448201526265737360e81b606482015260840162001aee565b6200306883838362003ad0565b6001600160a01b03831660009081526020819052604090205481811015620030e25760405162461bcd60e51b815260206004820152602660248201527f45524332303a207472616e7366657220616d6f756e7420657863656564732062604482015265616c616e636560d01b606482015260840162001aee565b6001600160a01b03848116600081815260208181526040808320878703905593871680835291849020805487019055925185815290927fddf252ad1be2c89b69c2b068fc378daa952ba7f163c4a11628f55a4df523b3ef910160405180910390a362002f8b565b6000306001600160a01b037f000000000000000000000000000000000000000000000000000000000000000016148015620031a357507f000000000000000000000000000000000000000000000000000000000000000046145b15620031ce57507f000000000000000000000000000000000000000000000000000000000000000090565b620012aa604080517f8b73c3c69bb8fe3d512ecc4cf759cc79239f7b179b0ffacaa9a75d522b39400f60208201527f0000000000000000000000000000000000000000000000000000000000000000918101919091527f000000000000000000000000000000000000000000000000000000000000000060608201524660808201523060a082015260009060c00160405160208183030381529060405280519060200120905090565b6000816000036200328a57506000919050565b60006001620032998462003ae6565b901c6001901b90506001818481620032b557620032b562004627565b048201901c90506001818481620032d057620032d062004627565b048201901c90506001818481620032eb57620032eb62004627565b048201901c9050600181848162003306576200330662004627565b048201901c9050600181848162003321576200332162004627565b048201901c905060018184816200333c576200333c62004627565b048201901c9050600181848162003357576200335762004627565b048201901c9050620012638182858162003375576200337562004627565b046200344d565b6001600160a01b038216620033d45760405162461bcd60e51b815260206004820152601f60248201527f45524332303a206d696e7420746f20746865207a65726f206164647265737300604482015260640162001aee565b620033e26000838362003ad0565b8060026000828254620033f69190620046ac565b90915550506001600160a01b038216600081815260208181526040808320805486019055518481527fddf252ad1be2c89b69c2b068fc378daa952ba7f163c4a11628f55a4df523b3ef910160405180910390a35050565b60008183106200345e578162001263565b5090919050565b606060ff8316156200347c5762002a658362003b82565b8180546200348a9062004660565b80601f0160208091040260200160405190810160405280929190818152602001828054620034b89062004660565b8015620035095780601f10620034dd5761010080835404028352916020019162003509565b820191906000526020600020905b815481529060010190602001808311620034eb57829003601f168201915b5050505050905062000f92565b6001600160a01b038216620035785760405162461bcd60e51b815260206004820152602160248201527f45524332303a206275726e2066726f6d20746865207a65726f206164647265736044820152607360f81b606482015260840162001aee565b620035868260008362003ad0565b6001600160a01b03821660009081526020819052604090205481811015620035fc5760405162461bcd60e51b815260206004820152602260248201527f45524332303a206275726e20616d6f756e7420657863656564732062616c616e604482015261636560f01b606482015260840162001aee565b6001600160a01b0383166000818152602081815260408083208686039055600280548790039055518581529192917fddf252ad1be2c89b69c2b068fc378daa952ba7f163c4a11628f55a4df523b3ef910160405180910390a3505050565b6001600160a01b03811660009081526020819052604090205480156200379b576001600160a01b0382166000908152601b602090815260408083208054601c8085529285208054601954601a54948190559490955282905593620036bf8584620045f7565b90506000620036cf8584620045f7565b9050811562003731576000670de0b6b3a7640000620036ef848a6200460d565b620036fb91906200463d565b6001600160a01b038a166000908152601d60205260408120805492935083929091906200372a908490620046ac565b9091555050505b801562003791576000670de0b6b3a76400006200374f838a6200460d565b6200375b91906200463d565b6001600160a01b038a166000908152601e60205260408120805492935083929091906200378a908490620046ac565b9091555050505b5050505050505050565b6019546001600160a01b0383166000908152601b6020908152604080832093909355601a54601c909152919020555050565b6001600160a01b03811660009081526007602052604090208054600181018255905b50919050565b600062000f926200380562003149565b8360405161190160f01b8152600281019290925260228201526042902090565b6000806000620038388787878762003bb7565b91509150620038478162003c80565b5095945050505050565b6000620038a8826040518060400160405280602081526020017f5361666545524332303a206c6f772d6c6576656c2063616c6c206661696c6564815250856001600160a01b031662003ddd9092919063ffffffff16565b80519091501562001bdc5780806020019051810190620038c991906200455b565b62001bdc5760405162461bcd60e51b815260206004820152602a60248201527f5361666545524332303a204552433230206f7065726174696f6e20646964206e6044820152691bdd081cdd58d8d9595960b21b606482015260840162001aee565b6000805b60ff81101562003aa157600062003946868562003dee565b905084811015620039fb5760006200395f878662003e87565b6200396b8388620045f7565b6200397f90670de0b6b3a76400006200460d565b6200398b91906200463d565b905080600003620039e657858203620039aa5784935050505062001263565b85620039c388620039bd886001620046ac565b6200294e565b1115620039e257620039d7856001620046ac565b935050505062001263565b5060015b620039f28186620046ac565b94505062003a8b565b600062003a09878662003e87565b62003a158784620045f7565b62003a2990670de0b6b3a76400006200460d565b62003a3591906200463d565b90508060000362003a7b578582148062003a6557508562003a638862003a5d600189620045f7565b62003dee565b105b1562003a775784935050505062001263565b5060015b62003a878186620045f7565b9450505b508062003a9881620046d8565b9150506200392e565b5060405162461bcd60e51b8152602060048201526002602482015261217960f01b604482015260640162001aee565b62003adb836200365a565b62001bdc826200365a565b600080608083901c1562003afc57608092831c92015b604083901c1562003b0f57604092831c92015b602083901c1562003b2257602092831c92015b601083901c1562003b3557601092831c92015b600883901c1562003b4857600892831c92015b600483901c1562003b5b57600492831c92015b600283901c1562003b6e57600292831c92015b600183901c1562000f925760010192915050565b60408051602080825281830190925260609160ff84169160009180820181803683375050509182525060208101929092525090565b6000807f7fffffffffffffffffffffffffffffff5d576e7357a4501ddfe92f46681b20a083111562003bf0575060009050600362003c77565b6040805160008082526020820180845289905260ff881692820192909252606081018690526080810185905260019060a0016020604051602081039080840390855afa15801562003c45573d6000803e3d6000fd5b5050604051601f1901519150506001600160a01b03811662003c705760006001925092505062003c77565b9150600090505b94509492505050565b600081600481111562003c975762003c9762004c0b565b0362003ca05750565b600181600481111562003cb75762003cb762004c0b565b0362003d065760405162461bcd60e51b815260206004820152601860248201527f45434453413a20696e76616c6964207369676e61747572650000000000000000604482015260640162001aee565b600281600481111562003d1d5762003d1d62004c0b565b0362003d6c5760405162461bcd60e51b815260206004820152601f60248201527f45434453413a20696e76616c6964207369676e6174757265206c656e67746800604482015260640162001aee565b600381600481111562003d835762003d8362004c0b565b0362001d2b5760405162461bcd60e51b815260206004820152602260248201527f45434453413a20696e76616c6964207369676e6174757265202773272076616c604482015261756560f01b606482015260840162001aee565b6060620011bd848460008562003f17565b600080670de0b6b3a764000062003e0684866200460d565b62003e1291906200463d565b90506000670de0b6b3a764000062003e2b85806200460d565b62003e3791906200463d565b670de0b6b3a764000062003e4c87806200460d565b62003e5891906200463d565b62003e649190620046ac565b9050670de0b6b3a764000062003e7b82846200460d565b6200262491906200463d565b6000670de0b6b3a7640000838162003ea082806200460d565b62003eac91906200463d565b62003eb891906200460d565b62003ec491906200463d565b670de0b6b3a76400008062003eda85806200460d565b62003ee691906200463d565b62003ef38660036200460d565b62003eff91906200460d565b62003f0b91906200463d565b620012639190620046ac565b60608247101562003f7a5760405162461bcd60e51b815260206004820152602660248201527f416464726573733a20696e73756666696369656e742062616c616e636520666f6044820152651c8818d85b1b60d21b606482015260840162001aee565b600080866001600160a01b0316858760405162003f98919062004c21565b60006040518083038185875af1925050503d806000811462003fd7576040519150601f19603f3d011682016040523d82523d6000602084013e62003fdc565b606091505b509150915062001a7687838387606083156200405d57825160000362004055576001600160a01b0385163b620040555760405162461bcd60e51b815260206004820152601d60248201527f416464726573733a2063616c6c20746f206e6f6e2d636f6e7472616374000000604482015260640162001aee565b5081620011bd565b620011bd8383815115620040745781518083602001fd5b8060405162461bcd60e51b815260040162001aee9190620041c4565b6105818062004c4083390190565b6001600160a01b038116811462001d2b57600080fd5b60008083601f840112620040c757600080fd5b50813567ffffffffffffffff811115620040e057600080fd5b602083019150836020828501011115620040f957600080fd5b9250929050565b6000806000806000608086880312156200411957600080fd5b8535945060208601359350604086013562004134816200409e565b9250606086013567ffffffffffffffff8111156200415157600080fd5b6200415f88828901620040b4565b969995985093965092949392505050565b60005b838110156200418d57818101518382015260200162004173565b50506000910152565b60008151808452620041b081602086016020860162004170565b601f01601f19169290920160200192915050565b60208152600062001263602083018462004196565b60008060408385031215620041ed57600080fd5b8235620041fa816200409e565b946020939093013593505050565b600080600080608085870312156200421f57600080fd5b84356200422c816200409e565b966020860135965060408601359560600135945092505050565b600081518084526020808501945080840160005b8381101562004278578151875295820195908201906001016200425a565b509495945050505050565b60208152600062001263602083018462004246565b600060208284031215620042ab57600080fd5b813562001263816200409e565b600080600060608486031215620042ce57600080fd5b8335620042db816200409e565b92506020840135620042ed816200409e565b929592945050506040919091013590565b6000602082840312156200431157600080fd5b5035919050565b6000806000606084860312156200432e57600080fd5b83356200433b816200409e565b95602085013595506040909401359392505050565b60ff60f81b8816815260e0602082015260006200437160e083018962004196565b828103604084015262004385818962004196565b606084018890526001600160a01b038716608085015260a0840186905283810360c08501529050620043b8818562004246565b9a9950505050505050505050565b60008060208385031215620043da57600080fd5b823567ffffffffffffffff811115620043f257600080fd5b6200440085828601620040b4565b90969095509350505050565b60ff8116811462001d2b57600080fd5b600080600080600080600060e0888a0312156200443857600080fd5b873562004445816200409e565b9650602088013562004457816200409e565b95506040880135945060608801359350608088013562004477816200440c565b9699959850939692959460a0840135945060c09093013592915050565b60008060408385031215620044a857600080fd5b8235620044b5816200409e565b91506020830135620044c7816200409e565b809150509250929050565b801515811462001d2b57600080fd5b600080600060608486031215620044f757600080fd5b833562004504816200409e565b9250602084013562004516816200409e565b915060408401356200452881620044d2565b809150509250925092565b600080604083850312156200454757600080fd5b823591506020830135620044c7816200409e565b6000602082840312156200456e57600080fd5b81516200126381620044d2565b60018060a01b038616815284602082015283604082015260806060820152816080820152818360a0830137600081830160a090810191909152601f909201601f19160101949350505050565b600060208284031215620045da57600080fd5b5051919050565b634e487b7160e01b600052601160045260246000fd5b8181038181111562000f925762000f92620045e1565b808202811582820484141762000f925762000f92620045e1565b634e487b7160e01b600052601260045260246000fd5b6000826200465b57634e487b7160e01b600052601260045260246000fd5b500490565b600181811c908216806200467557607f821691505b602082108103620037ef57634e487b7160e01b600052602260045260246000fd5b634e487b7160e01b600052604160045260246000fd5b8082018082111562000f925762000f92620045e1565b634e487b7160e01b600052603260045260246000fd5b600060018201620046ed57620046ed620045e1565b5060010190565b6000602082840312156200470757600080fd5b815162001263816200409e565b601f82111562001bdc57600081815260208120601f850160051c810160208610156200473d5750805b601f850160051c820191505b818110156200475e5782815560010162004749565b505050505050565b67ffffffffffffffff83111562004781576200478162004696565b620047998362004792835462004660565b8362004714565b6000601f841160018114620047d05760008515620047b75750838201355b600019600387901b1c1916600186901b17835562000edb565b600083815260209020601f19861690835b82811015620048035786850135825560209485019460019092019101620047e1565b5086821015620048215760001960f88860031b161c19848701351681555b505060018560011b0183555050505050565b6000602082840312156200484657600080fd5b815167ffffffffffffffff808211156200485f57600080fd5b818401915084601f8301126200487457600080fd5b81518181111562004889576200488962004696565b604051601f8201601f19908116603f01168101908382118183101715620048b457620048b462004696565b81604052828152876020848701011115620048ce57600080fd5b62001a7683602083016020880162004170565b6e029ba30b13632ab191020a6a690169608d1b8152600083516200490d81600f85016020880162004170565b602f60f81b600f9184019182015283516200493081601084016020880162004170565b01601001949350505050565b815167ffffffffffffffff81111562004959576200495962004696565b62004971816200496a845462004660565b8462004714565b602080601f831160018114620049a95760008415620049905750858301515b600019600386901b1c1916600185901b1785556200475e565b600085815260208120601f198616915b82811015620049da57888601518255948401946001909101908401620049b9565b5085821015620049f95787850151600019600388901b60f8161c191681555b5050505050600190811b01905550565b6673414d4d56322d60c81b81526000835162004a2d81600785016020880162004170565b602f60f81b600791840191820152835162004a5081600884016020880162004170565b01600801949350505050565b7002b37b630ba34b632ab191020a6a690169607d1b81526000835162004a8a81601185016020880162004170565b602f60f81b601191840191820152835162004aad81601284016020880162004170565b01601201949350505050565b6676414d4d56322d60c81b81526000835162004a2d81600785016020880162004170565b60006020828403121562004af057600080fd5b815162001263816200440c565b600181815b8085111562004b3e57816000190482111562004b225762004b22620045e1565b8085161562004b3057918102915b93841c939080029062004b02565b509250929050565b60008262004b575750600162000f92565b8162004b665750600062000f92565b816001811462004b7f576002811462004b8a5762004baa565b600191505062000f92565b60ff84111562004b9e5762004b9e620045e1565b50506001821b62000f92565b5060208310610133831016604e8410600b841016171562004bcf575081810a62000f92565b62004bdb838362004afd565b806000190482111562004bf25762004bf2620045e1565b029392505050565b60006200126360ff84168362004b46565b634e487b7160e01b600052602160045260246000fd5b6000825162004c3581846020870162004170565b919091019291505056fe60e060405234801561001057600080fd5b5060405161058138038061058183398101604081905261002f91610066565b336080526001600160a01b0391821660a0521660c052610099565b80516001600160a01b038116811461006157600080fd5b919050565b6000806040838503121561007957600080fd5b6100828361004a565b91506100906020840161004a565b90509250929050565b60805160a05160c0516104bc6100c5600039600060db0152600060a101526000605001526104bc6000f3fe608060405234801561001057600080fd5b506004361061002b5760003560e01c8063533cf5ce14610030575b600080fd5b61004361003e3660046103a9565b610045565b005b336001600160a01b037f0000000000000000000000000000000000000000000000000000000000000000161461008e57604051636f61f64160e01b815260040160405180910390fd5b81156100c8576100c86001600160a01b037f0000000000000000000000000000000000000000000000000000000000000000168484610107565b8015610102576101026001600160a01b037f0000000000000000000000000000000000000000000000000000000000000000168483610107565b505050565b604080516001600160a01b03848116602483015260448083018590528351808403909101815260649092018352602080830180516001600160e01b031663a9059cbb60e01b17905283518085019094528084527f5361666545524332303a206c6f772d6c6576656c2063616c6c206661696c65649084015261010292869291600091610197918516908490610219565b80519091501561010257808060200190518101906101b591906103ea565b6101025760405162461bcd60e51b815260206004820152602a60248201527f5361666545524332303a204552433230206f7065726174696f6e20646964206e6044820152691bdd081cdd58d8d9595960b21b60648201526084015b60405180910390fd5b60606102288484600085610230565b949350505050565b6060824710156102915760405162461bcd60e51b815260206004820152602660248201527f416464726573733a20696e73756666696369656e742062616c616e636520666f6044820152651c8818d85b1b60d21b6064820152608401610210565b600080866001600160a01b031685876040516102ad9190610437565b60006040518083038185875af1925050503d80600081146102ea576040519150601f19603f3d011682016040523d82523d6000602084013e6102ef565b606091505b50915091506103008783838761030b565b979650505050505050565b6060831561037a578251600003610373576001600160a01b0385163b6103735760405162461bcd60e51b815260206004820152601d60248201527f416464726573733a2063616c6c20746f206e6f6e2d636f6e74726163740000006044820152606401610210565b5081610228565b610228838381511561038f5781518083602001fd5b8060405162461bcd60e51b81526004016102109190610453565b6000806000606084860312156103be57600080fd5b83356001600160a01b03811681146103d557600080fd5b95602085013595506040909401359392505050565b6000602082840312156103fc57600080fd5b8151801515811461040c57600080fd5b9392505050565b60005b8381101561042e578181015183820152602001610416565b50506000910152565b60008251610449818460208701610413565b9190910192915050565b6020815260008251806020840152610472816040850160208701610413565b601f01601f1916919091016040019291505056fea2646970667358221220bbf31b8572a00cdf66220f30ec5249ada1d4976e9903a1d170e02ce799af741b64736f6c63430008130033a264697066735822122090e7bb32f00afe7fba0bbb00adbea85469db21a14ac49d4dc90d32004c529e4664736f6c63430008130033",
        "linkReferences": {}
    },
    "methodIdentifiers": {
        "DOMAIN_SEPARATOR()": "3644e515",
        "allowance(address,address)": "dd62ed3e",
        "approve(address,uint256)": "095ea7b3",
        "balanceOf(address)": "70a08231",
        "blockTimestampLast()": "c5700a02",
        "burn(address)": "89afcb44",
        "claimFees()": "d294f093",
        "claimable0(address)": "4d5a9f8a",
        "claimable1(address)": "a1ac4d13",
        "currentCumulativePrices()": "1df8c717",
        "decimals()": "313ce567",
        "decreaseAllowance(address,uint256)": "a457c2d7",
        "eip712Domain()": "84b0196e",
        "factory()": "c45a0155",
        "getAmountOut(uint256,address)": "f140a35a",
        "getReserves()": "0902f1ac",
        "increaseAllowance(address,uint256)": "39509351",
        "index0()": "32c0defd",
        "index1()": "bda39cad",
        "initialize(address,address,bool)": "e4bbb5a8",
        "lastObservation()": "8a7b8cf2",
        "metadata()": "392f37e9",
        "mint(address)": "6a627842",
        "name()": "06fdde03",
        "nonces(address)": "7ecebe00",
        "observationLength()": "ebeb31db",
        "observations(uint256)": "252c09d7",
        "periodSize()": "e4463eb2",
        "permit(address,address,uint256,uint256,uint8,bytes32,bytes32)": "d505accf",
        "poolFees()": "33580959",
        "prices(address,uint256,uint256)": "5881c475",
        "quote(address,uint256,uint256)": "9e8cc04b",
        "reserve0()": "443cb4bc",
        "reserve0CumulativeLast()": "bf944dbc",
        "reserve1()": "5a76f25e",
        "reserve1CumulativeLast()": "c245febc",
        "sample(address,uint256,uint256,uint256)": "13345fe1",
        "setName(string)": "c47f0027",
        "setSymbol(string)": "b84c8246",
        "skim(address)": "bc25cf77",
        "stable()": "22be3de1",
        "supplyIndex0(address)": "9f767c88",
        "supplyIndex1(address)": "205aabf1",
        "swap(uint256,uint256,address,bytes)": "022c0d9f",
        "symbol()": "95d89b41",
        "sync()": "fff6cae9",
        "token0()": "0dfe1681",
        "token1()": "d21220a7",
        "tokens()": "9d63848a",
        "totalSupply()": "18160ddd",
        "transfer(address,uint256)": "a9059cbb",
        "transferFrom(address,address,uint256)": "23b872dd"
    },
    "id": 2
}